:040000005FEF1FF09F
:103E6800730ED36E000E816E000E936E9568836894
:103E7800360EC66EF28EF28C9D8643EF1FF012004E
:103E8800000E816EAA0E816EC80E00010001F96F46
:103E9800000E0001FA6FA5EC1FF0000E816EC80E2F
:103EA80000010001F96F000E0001FA6FA5EC1FF088
:103EB80046EF1FF0120034EC1FF00001F56F1F0EE3
:103EC80000010001F66F0001F5517DEC1FF09EA680
:103ED80070EF1FF072EF1FF074EF1FF076EF1FF016
:103EE8006BEF1FF09E9644EC1FF07BEF1FF000EF86
:103EF80000F00001F86F000E00010001F76F0001EB
:103F0800F851F6C0F7F0F6C0C8FF640E00010001D2
:103F1800F96F000E0001FA6FA5EC1FF0C8CFF6F09C
:103F280000010001F75100010001F6639EEF1FF048
:103F3800A0EF1FF0A2EF1FF0A4EF1FF0A4EF1FF0F7
:103F48001200000E00010001FB6F000E0001FC6F63
:103F5800000E00010001FD6F000E0001FE6F000E53
:103F680000010001FB6F000E0001FC6FE5EF1FF080
:103F7800000E00010001FD6F000E0001FE6FC9EF89
:103F88001FF000010001FD4BFE2B00010001FE5156
:103F9800800A0001FF6F0001F95100010001FD5D79
:103FA80000010001FA51800A0001FF59D8A0DFEF93
:103FB8001FF0E1EF1FF0C5EF1FF000010001FB4B00
:103FC800FC2B00010001FC51800A0001FF6F000179
:103FD800F95100010001FB5D00010001FA51800A5E
:103FE8000001FF59D8A0FBEF1FF0FDEF1FF0BCEF59
:083FF8001FF0FFEF1FF01200A3
:00000001FF
