:040000000CEF00F011
:10000800FACF1DF1FBCF1EF1E9CF1FF1DEEF01F0B2
:1000180000EE00F010EE25F018EC00F0000EF86E7F
:10002800030EF76E42EF06F0EE6AE550E150FCE190
:06003800E250FAE11200A3
:1003000000577269746520636F6C6C6973696F6EF6
:100310002044657465637465642E20577269746542
:10032000206661696C656400526563656976652065
:100330004F766572666C6F77005353504255462076
:1003400069732046756C6C00537461727420446547
:100350007465637465640053746172742046696ED9
:1003600069736865640053746F70204465746563D5
:10037000746564005374617274696E672049324316
:1003800000446174612052656376640053535049A0
:100390004620302000535350454E20302000535308
:1003A00050494620310042462069732031004246C0
:1003B000206973203000495251000000EACF20F13B
:1003C000E1CF21F1E2CF22F1D9CF23F1DACF24F12D
:1003D000F3CF25F1F4CF26F1F6CF27F1F7CF28F1AF
:1003E000F8CF29F1F5CF2AF1B60E010101012B6FEB
:1003F000030E01012C6F30EC03F09DA602EF02F01A
:1004000004EF02F07BEF02F09EA609EF02F00BEF83
:1004100002F07BEF02F0C6AE10EF02F012EF02F036
:100420001CEF02F0010E010101012B6F030E01010F
:100430002C6F30EC03F0C69EC6AC21EF02F023EF28
:1004400002F02DEF02F0280E010101012B6F030EC7
:1004500001012C6F30EC03F0C69E0050D8B433EF8E
:1004600002F035EF02F04BEF02F0C7A03AEF02F0D6
:100470003CEF02F04BEF02F001011C6F000E006E2A
:1004800001011C51810E010101012B6F030E0101BD
:100490002C6F30EC03F0C7A650EF02F052EF02F0E1
:1004A0005BEF02F0480E010101012B6F030E010109
:1004B0002C6F30EC03F0C7A860EF02F062EF02F09F
:1004C0006BEF02F0660E010101012B6F030E0101BB
:1004D0002C6F30EC03F0C7A070EF02F072EF02F067
:1004E0007BEF02F0390E010101012B6F030E0101B8
:1004F0002C6F30EC03F09E962AC1F5FF29C1F8FF5E
:1005000028C1F7FF27C1F6FF26C1F4FF25C1F3FF7D
:1005100024C1DAFF23C1D9FF22C1E2FF21C1E1FFDB
:1005200020C1EAFF1FC1E9FF1EC1FBFF1DC1FAFF89
:100530001100000E01010101176F000E0101186F7B
:10054000000E0101196F000E01011A6F0101155112
:10055000121113111411D8B4B0EF02F0B2EF02F07F
:1005600025EF03F001011B6F010E01010101166F60
:1005700001011B51C9EF02F00101D89001011237AE
:100580000101133701011437010115370101010180
:10059000162B0101010115AFD0EF02F0D2EF02F0EE
:1005A000BCEF02F00101D8900101173701011837A3
:1005B0000101193701011A3701010101125101012D
:1005C00001010E5D010101011351010101010F59EA
:1005D0000101010114510101010110590101010141
:1005E0001551010101011159D8A0F9EF02F0FBEFFB
:1005F00002F016EF03F001010101125101010101A6
:100600000E5F010101011351010101010F5B0101A5
:100610000101145101010101105B0101010115519A
:1006200001010101115B0101010117810101D89054
:100630000101153301011433010113330101123398
:1006400001010101162FD2EF02F017C10EF118C1FE
:100650000FF119C110F11AC111F12FEF03F01200BF
:10066000000E010101012D6F000E01012E6F2BC143
:1006700033F12CC134F197EC05F033C12DF134C1C5
:100680002EF1000E010101012F6F000E0101306FEC
:1006900073EF03F0010101012F51010101012B252D
:1006A0000101316FE86A010101012FBFE868010112
:1006B00001012C210101326F31C1F6FF32C1F7FF78
:1006C00008000101F5CF33F163EC06F00A0E0101D9
:1006D0000101336F000E0101346F61EC04F0010180
:1006E00001012F4B302B010101013051800A010122
:1006F000316F01012D51010101012F5D0101010146
:100700002E51800A01013159D8A089EF03F08BEFF7
:1007100003F04AEF03F00101316F0A0E01010101FC
:10072000336F0101315163EC06F097EF03F01200D3
:10073000000E01010101036F000E0101046F01C1F0
:1007400009F102C10AF1D1EC05F009C103F10AC1B6
:1007500004F1000E01010101056F000E0101066F99
:10076000DBEF03F001010101055101010101012548
:100770000101076FE86A0101010105BFE868010195
:10078000010102210101086F07C1F6FF08C1F7FF4F
:1007900008000101F5CF09F171EC06F00A0E010124
:1007A0000101096F000E01010A6F00EC04F0010164
:1007B0000101054B062B010101010651800A0101CF
:1007C000076F0101035101010101055D01010101F3
:1007D0000451800A01010759D8A0F1EF03F0F3EFAB
:1007E00003F0B2EF03F00101076F0A0E01010101EE
:1007F000096F0101075171EC06F0FFEF03F01200E1
:10080000000E010101010D6F000E01010E6F000EBF
:10081000010101010B6F000E01010C6F000E0101BF
:1008200001010D6F000E01010E6F010101010E515A
:10083000800A800F030ED8B40D5DD8A022EF04F01B
:1008400024EF04F026EF04F05EEF04F0000E010147
:1008500001010B6F000E01010C6F33EF04F0010179
:1008600001010B4B0C2B010101010C51800A01010C
:100870000F6F01010951010101010B5D010101012E
:100880000A51800A01010F59D8A049EF04F04BEF3B
:1008900004F02FEF04F0010101010D4B0E2B0101BB
:1008A00001010E51800A800F030ED8B40D5DD8A04F
:1008B0005CEF04F05EEF04F026EF04F060EF04F06C
:1008C0001200000E01010101376F000E0101386FA7
:1008D000000E01010101356F000E0101366F000E9F
:1008E00001010101376F000E0101386F01010101A3
:1008F0003851800A800F030ED8B4375DD8A083EF3B
:1009000004F085EF04F087EF04F0BFEF04F0000E71
:1009100001010101356F000E0101366F94EF04F003
:1009200001010101354B362B010101013651800ACD
:100930000101396F0101335101010101355D0101EF
:1009400001013451800A01013959D8A0AAEF04F0FD
:10095000ACEF04F090EF04F001010101374B382BAC
:10096000010101013851800A800F030ED8B4375DB0
:10097000D8A0BDEF04F0BFEF04F087EF04F0C1EFA3
:1009800004F01200740E01010101016F030E010158
:10099000026F98EC03F09EB6D0EF04F0D2EF04F0B3
:1009A000DDEF04F08C0E01010101016F030E010166
:1009B000026F98EC03F0E6EF04F09E0E01010101D6
:1009C000016F030E0101026F98EC03F09E960BEC91
:1009D00005F0AA0EC96EC7A0F0EF04F0F2EF04F024
:1009E000FDEF04F0A60E01010101016F030E0101EC
:1009F000026F98EC03F006EF05F0AE0E0101010165
:100A0000016F030E0101026F98EC03F07FEC06F01A
:100A10000AEF05F01200C68A0101006F010E026E96
:100A20000101005114EF05F0C6AA19EF05F01BEF04
:100A300005F014EF05F0950E01010101016F030EA1
:100A40000101026F98EC03F0C7A629EF05F02BEF28
:100A500005F036EF05F0480E01010101016F030EAC
:100A60000101026F98EC03F03FEF05F0570E010112
:100A70000101016F030E0101026F98EC03F0C7A89A
:100A800044EF05F046EF05F04FEF05F0660E01016B
:100A90000101016F030E0101026F98EC03F051EFA9
:100AA00005F012008BEF05F0AA8601010101085143
:100AB00001010A6F01010101095101010B6F0101DF
:100AC0000C6B01010D6B020ED89001010A370B3738
:100AD0000C370D37E82E64EF05F00AC112F10BC197
:100AE00013F10CC114F10DC115F104C10EF105C1D2
:100AF0000FF106C110F107C111F199EC02F00101EB
:100B000001010E05AF6E240EAC6E900EAB6E96EF2B
:100B100005F096EF05F0010101010251000AC4E061
:100B2000010AF7E0030AF5E096EF05F0120033C181
:100B300035F134C136F19FEF05F09FEF05F001016B
:100B400035C1F6FF010136C1F7FF01010101354B47
:100B5000362B0800F5500009D8A4B1EF05F0B3EF2B
:100B600005F09DEF05F0010135C137F1010136C1F6
:100B700038F10101010133510101375F0101010128
:100B800034510101385BFF0E0101372501010101DC
:100B9000336FFF0E010138210101346FD0EF05F0F2
:100BA000120009C10BF10AC10CF1D9EF05F0D9EF20
:100BB00005F001010BC1F6FF01010CC1F7FF0101B6
:100BC00001010B4B0C2B0800F5500009D8A4EBEFEA
:100BD00005F0EDEF05F0D7EF05F001010BC10DF1C8
:100BE00001010CC10EF101010101095101010D5F6B
:100BF000010101010A5101010E5BFF0E01010D25EA
:100C000001010101096FFF0E01010E2101010A6FAF
:100C10000AEF06F01200630ED36E000EB86E000EDF
:100C2000816E000E936E800E946EF28EF28C800EAA
:100C300001010101086F250E0101096F000E01017C
:100C40000101046F090E0101056F3D0E0101066FE0
:100C5000000E0101076F0101006F000E010101018B
:100C6000036F010100510101016F000E010101013B
:100C7000026F0101015152EC05F053EC06F041EF17
:100C800006F012000BEC06F0C2EC04F0880E010135
:100C90000101096F130E01010A6F00EC04F046EF29
:100CA00006F00CEF00F095689594959683948396E2
:100CB0000A0EC86EC79CC686C694C682C6809D862C
:100CC00062EF06F0120067EF06F067EF06F09EA8ED
:100CD0006CEF06F06EEF06F065EF06F033C1ADFF86
:100CE000120075EF06F075EF06F09EA87AEF06F099
:100CF0007CEF06F073EF06F009C1ADFF120081EF43
:040D000006F01200E7
:00000001FF
