:040000000CEF00F011
:10000800FACF1DF1FBCF1EF1E9CF1FF1D6EF01F0BA
:1000180000EE00F010EE25F018EC00F0000EF86E7F
:10002800030EF76EE4EF05F0EE6AE550E150FCE1EF
:06003800E250FAE11200A3
:1003000000577269746520636F6C6C6973696F6EF6
:100310002044657465637465642E20577269746542
:10032000206661696C656400526563656976652065
:100330004F766572666C6F77005353504255462076
:1003400069732046756C6C00537461727420446547
:100350007465637465640053746172742046696ED9
:1003600069736865640053746F70204465746563D5
:10037000746564005374617274696E672049324316
:1003800000446174612052656376640053535049A0
:100390004620302000535350454E20302000535308
:1003A000504946203100495251000000EACF20F167
:1003B000E1CF21F1E2CF22F1D9CF23F1DACF24F13D
:1003C000F3CF25F1F4CF26F1F6CF27F1F7CF28F1BF
:1003D000F8CF29F1F5CF2AF1A60E010101012B6F0B
:1003E000030E01012C6F28EC03F09DA6FAEF01F03B
:1003F000FCEF01F073EF02F09EA601EF02F003EFB5
:1004000002F073EF02F0C6AE08EF02F00AEF02F05E
:1004100014EF02F0010E010101012B6F030E010127
:100420002C6F28EC03F0C69EC6AC19EF02F01BEF50
:1004300002F025EF02F0280E010101012B6F030EDF
:1004400001012C6F28EC03F0C69E0050D8B42BEFAE
:1004500002F02DEF02F043EF02F0C7A032EF02F0FE
:1004600034EF02F043EF02F001011C6F000E006E4A
:1004700001011C51810E010101012B6F030E0101CD
:100480002C6F28EC03F0C7A648EF02F04AEF02F009
:1004900053EF02F0480E010101012B6F030E010121
:1004A0002C6F28EC03F0C7A858EF02F05AEF02F0C7
:1004B00063EF02F0660E010101012B6F030E0101D3
:1004C0002C6F28EC03F0C7A068EF02F06AEF02F08F
:1004D00073EF02F0390E010101012B6F030E0101D0
:1004E0002C6F28EC03F09E962AC1F5FF29C1F8FF76
:1004F00028C1F7FF27C1F6FF26C1F4FF25C1F3FF8E
:1005000024C1DAFF23C1D9FF22C1E2FF21C1E1FFEB
:1005100020C1EAFF1FC1E9FF1EC1FBFF1DC1FAFF99
:100520001100000E01010101176F000E0101186F8B
:10053000000E0101196F000E01011A6F0101155122
:10054000121113111411D8B4A8EF02F0AAEF02F09F
:100550001DEF03F001011B6F010E01010101166F78
:1005600001011B51C1EF02F00101D89001011237C6
:100570000101133701011437010115370101010190
:10058000162B0101010115AFC8EF02F0CAEF02F00E
:10059000B4EF02F00101D8900101173701011837BB
:1005A0000101193701011A3701010101125101013D
:1005B00001010E5D010101011351010101010F59FA
:1005C0000101010114510101010110590101010151
:1005D0001551010101011159D8A0F1EF02F0F3EF1B
:1005E00002F00EEF03F001010101125101010101BE
:1005F0000E5F010101011351010101010F5B0101B6
:100600000101145101010101105B010101011551AA
:1006100001010101115B0101010117810101D89064
:1006200001011533010114330101133301011233A8
:1006300001010101162FCAEF02F017C10EF118C116
:100640000FF119C110F11AC111F127EF03F01200D7
:10065000000E010101012D6F000E01012E6F2BC153
:1006600033F12CC134F139EC05F033C12DF134C133
:100670002EF1000E010101012F6F000E0101306FFC
:100680006BEF03F0010101012F51010101012B2545
:100690000101316FE86A010101012FBFE868010122
:1006A00001012C210101326F31C1F6FF32C1F7FF88
:1006B00008000101F5CF33F1F5EC05F00A0E010158
:1006C0000101336F000E0101346F59EC04F0010198
:1006D00001012F4B302B010101013051800A010132
:1006E000316F01012D51010101012F5D0101010156
:1006F0002E51800A01013159D8A081EF03F083EF18
:1007000003F042EF03F00101316F0A0E0101010114
:10071000336F01013151F5EC05F08FEF03F012005A
:10072000000E01010101026F000E0101036F00C103
:1007300008F101C109F173EC05F008C102F109C12A
:1007400003F1000E01010101046F000E0101056FAC
:10075000D3EF03F001010101045101010101002562
:100760000101066FE86A0101010104BFE8680101A7
:10077000010101210101076F06C1F6FF07C1F7FF63
:1007800008000101F5CF08F111EC06F00A0E010195
:100790000101086F000E0101096FF8EC03F001017F
:1007A0000101044B052B010101010551800A0101E2
:1007B000066F0101025101010101045D0101010106
:1007C0000351800A01010659D8A0E9EF03F0EBEFCD
:1007D00003F0AAEF03F00101066F0A0E0101010107
:1007E000086F0101065111EC06F0F7EF03F012005B
:1007F000000E010101010C6F000E01010D6F000ED2
:10080000010101010A6F000E01010B6F000E0101D1
:1008100001010C6F000E01010D6F010101010D516D
:10082000800A800F030ED8B40C5DD8A01AEF04F034
:100830001CEF04F01EEF04F056EF04F0000E01016F
:1008400001010A6F000E01010B6F2BEF04F0010193
:1008500001010A4B0B2B010101010B51800A01011F
:100860000E6F01010851010101010A5D0101010141
:100870000951800A01010E59D8A041EF04F043EF5D
:1008800004F027EF04F0010101010C4B0D2B0101D5
:1008900001010D51800A800F030ED8B40C5DD8A061
:1008A00054EF04F056EF04F01EEF04F058EF04F09C
:1008B0001200000E01010101376F000E0101386FB7
:1008C000000E01010101356F000E0101366F000EAF
:1008D00001010101376F000E0101386F01010101B3
:1008E0003851800A800F030ED8B4375DD8A07BEF53
:1008F00004F07DEF04F07FEF04F0B7EF04F0000E9A
:1009000001010101356F000E0101366F8CEF04F01B
:1009100001010101354B362B010101013651800ADD
:100920000101396F0101335101010101355D0101FF
:1009300001013451800A01013959D8A0A2EF04F015
:10094000A4EF04F088EF04F001010101374B382BCC
:10095000010101013851800A800F030ED8B4375DC0
:10096000D8A0B5EF04F0B7EF04F07FEF04F0B9EFD3
:1009700004F01200F3EF04F0AA860101010108510E
:1009800001010A6F01010101095101010B6F010110
:100990000C6B01010D6B020ED89001010A370B3769
:1009A0000C370D37E82ECCEF04F00AC112F10BC161
:1009B00013F10CC114F10DC115F104C10EF105C103
:1009C0000FF106C110F107C111F191EC02F0010124
:1009D00001010E05AF6E240EAC6E900EAB6EFEEFF5
:1009E00004F0FEEF04F0010101010251000AC4E02D
:1009F000010AF7E0030AF5E0FEEF04F01200740EBE
:100A000001010101006F030E0101016F90EC03F081
:100A10009EB60DEF05F00FEF05F01AEF05F08C0E06
:100A200001010101006F030E0101016F90EC03F061
:100A300023EF05F09E0E01010101006F030E01017D
:100A4000016F90EC03F09E9626EF05F09EA62BEF2B
:100A500005F02DEF05F026EF05F09E0E01010101D6
:100A6000006F030E0101016F90EC03F038EF05F009
:100A7000120033C135F134C136F141EF05F041EFD9
:100A800005F0010135C1F6FF010136C1F7FF010193
:100A90000101354B362B0800F5500009D8A453EF5F
:100AA00005F055EF05F03FEF05F0010135C137F1D5
:100AB000010136C138F10101010133510101375FF4
:100AC0000101010134510101385BFF0E010137259D
:100AD00001010101336FFF0E010138210101346F63
:100AE00072EF05F0120008C10AF109C10BF17BEFAA
:100AF00005F07BEF05F001010AC1F6FF01010BC112
:100B0000F7FF010101010A4B0B2B0800F55000090A
:100B1000D8A48DEF05F08FEF05F079EF05F0010116
:100B20000AC10CF101010BC10DF1010101010851D4
:100B300001010C5F01010101095101010D5BFF0E73
:100B400001010C2501010101086FFF0E01010D21BA
:100B50000101096FACEF05F01200630ED36E000EB9
:100B6000B86E000E816E000E936E800E946EF28E43
:100B7000F28C800E01010101086F250E0101096F41
:100B8000000E01010101046F090E0101056F3D0E08
:100B90000101066F000E0101076F0101006F000ED9
:100BA00001010101036F010100510101016F000EFC
:100BB00001010101026F01010151BAEC04F003ECE3
:100BC00006F0E3EF05F01200ADEC05F0FFEC04F0E9
:100BD000880E01010101086F130E0101096FF8EC85
:100BE00003F0E8EF05F00CEF00F0F9EF05F0F9EF96
:100BF00005F09EA8FEEF05F000EF06F0F7EF05F018
:100C000033C1ADFF1200956895849586550EC86E68
:100C1000C79CC686C694C682C6809D8610EF06F025
:100C2000120015EF06F015EF06F09EA81AEF06F079
:0E0C30001CEF06F013EF06F008C1ADFF120036
:00000001FF
